:03000000020026D5
:0C002600787FE4F6D8FD75810C02006DB7
:10014700FF60554C48403933302B2624201C1918A2
:06015700151312100E0D3D
:06016F00010A0001080076
:10015D00EF75F003A4FFAEF0EF1F70011E144E708B
:01016D00F79A
:01016E00226E
:10000300759850758920758780758DF3758BF3D23C
:06001300ACD2AFD28E2238
:10012400AF0AEF3395E0FE74472FF58274013EF574
:1001340083E493F50CE508B401FBB296AF0C12010D
:030144005D80F2E9
:0A001900C29712000312012480FBBD
:030023000200B226
:1000B200C0E0C083C082C0D075D000C006C0078532
:1000C200990BC298C3E50B648094B04019D3E50B39
:1000D200648094B75010AF0BEF3395E0FE74172F86
:1000E200F58274018020C3E50B648094E14023D340
:1000F200E50B648094EE501AAF0BEF3395E0FE747B
:10010200EE2FF58274003EF583E493F50C75080139
:100112008003750800D007D006D0D0D082D083D01B
:02012200E032C9
:10003200020019E493A3F8E493A34003F68001F2CB
:1000420008DFF48029E493A3F85407240CC8C333CF
:10005200C4540F4420C8834004F456800146F6DF9E
:10006200E4800B010204081020408090016FE47EBE
:10007200019360BCA3FF543F30E509541FFEE49393
:10008200A360010ECF54C025E060A840B8E493A35A
:10009200FAE493A3F8E493A3C8C582C8CAC583CA85
:1000A200F0A3C8C582C8CAC583CADFE9DEE780BE3D
:010175000089
:00000001FF
